{
  "_format": "hh-sol-artifact-1",
  "contractName": "WhistleBlower",
  "sourceName": "contracts/WhistleBlower.sol",
  "abi": [
    {
      "anonymous": false,
      "inputs": [
        {
          "indexed": true,
          "internalType": "address",
          "name": "reporter",
          "type": "address"
        },
        {
          "indexed": false,
          "internalType": "string",
          "name": "ipfsHash",
          "type": "string"
        },
        {
          "indexed": false,
          "internalType": "uint256",
          "name": "timestamp",
          "type": "uint256"
        }
      ],
      "name": "ReportSubmitted",
      "type": "event"
    },
    {
      "inputs": [
        {
          "internalType": "uint256",
          "name": "index",
          "type": "uint256"
        }
      ],
      "name": "getReport",
      "outputs": [
        {
          "internalType": "address",
          "name": "",
          "type": "address"
        },
        {
          "internalType": "string",
          "name": "",
          "type": "string"
        },
        {
          "internalType": "uint256",
          "name": "",
          "type": "uint256"
        }
      ],
      "stateMutability": "view",
      "type": "function"
    },
    {
      "inputs": [],
      "name": "getReportsCount",
      "outputs": [
        {
          "internalType": "uint256",
          "name": "",
          "type": "uint256"
        }
      ],
      "stateMutability": "view",
      "type": "function"
    },
    {
      "inputs": [
        {
          "internalType": "uint256",
          "name": "",
          "type": "uint256"
        }
      ],
      "name": "reports",
      "outputs": [
        {
          "internalType": "address",
          "name": "reporter",
          "type": "address"
        },
        {
          "internalType": "string",
          "name": "ipfsHash",
          "type": "string"
        },
        {
          "internalType": "uint256",
          "name": "timestamp",
          "type": "uint256"
        }
      ],
      "stateMutability": "view",
      "type": "function"
    },
    {
      "inputs": [
        {
          "internalType": "string",
          "name": "_ipfsHash",
          "type": "string"
        }
      ],
      "name": "submitReport",
      "outputs": [],
      "stateMutability": "nonpayable",
      "type": "function"
    }
  ],
  "bytecode": "0x608060405234801561001057600080fd5b50610b8d806100206000396000f3fe608060405234801561001057600080fd5b506004361061004c5760003560e01c806327d33f72146100515780634e7f9b191461006f578063635ac1ed146100a1578063c942adf7146100bd575b600080fd5b6100596100ef565b6040516100669190610499565b60405180910390f35b610089600480360381019061008491906104f4565b6100fb565b604051610098939291906105f2565b60405180910390f35b6100bb60048036038101906100b69190610765565b610286565b005b6100d760048036038101906100d291906104f4565b61039e565b6040516100e6939291906105f2565b60405180910390f35b60008080549050905090565b60006060600080805490508410610147576040517f08c379a000000000000000000000000000000000000000000000000000000000815260040161013e906107fa565b60405180910390fd5b600080858154811061015c5761015b61081a565b5b90600052602060002090600302016040518060600160405290816000820160009054906101000a900473ffffffffffffffffffffffffffffffffffffffff1673ffffffffffffffffffffffffffffffffffffffff1673ffffffffffffffffffffffffffffffffffffffff1681526020016001820180546101db90610878565b80601f016020809104026020016040519081016040528092919081815260200182805461020790610878565b80156102545780601f1061022957610100808354040283529160200191610254565b820191906000526020600020905b81548152906001019060200180831161023757829003601f168201915b505050505081526020016002820154815250509050806000015181602001518260400151935093509350509193909250565b600060405180606001604052803373ffffffffffffffffffffffffffffffffffffffff16815260200183815260200142815250908060018154018082558091505060019003906000526020600020906003020160009091909190915060008201518160000160006101000a81548173ffffffffffffffffffffffffffffffffffffffff021916908373ffffffffffffffffffffffffffffffffffffffff160217905550602082015181600101908161033e9190610a55565b506040820151816002015550503373ffffffffffffffffffffffffffffffffffffffff167f8eee89b637f272e645302f4b1f23e9c8fbe825d2d532be1a72731e14807cfc728242604051610393929190610b27565b60405180910390a250565b600081815481106103ae57600080fd5b90600052602060002090600302016000915090508060000160009054906101000a900473ffffffffffffffffffffffffffffffffffffffff16908060010180546103f790610878565b80601f016020809104026020016040519081016040528092919081815260200182805461042390610878565b80156104705780601f1061044557610100808354040283529160200191610470565b820191906000526020600020905b81548152906001019060200180831161045357829003601f168201915b5050505050908060020154905083565b6000819050919050565b61049381610480565b82525050565b60006020820190506104ae600083018461048a565b92915050565b6000604051905090565b600080fd5b600080fd5b6104d181610480565b81146104dc57600080fd5b50565b6000813590506104ee816104c8565b92915050565b60006020828403121561050a576105096104be565b5b6000610518848285016104df565b91505092915050565b600073ffffffffffffffffffffffffffffffffffffffff82169050919050565b600061054c82610521565b9050919050565b61055c81610541565b82525050565b600081519050919050565b600082825260208201905092915050565b60005b8381101561059c578082015181840152602081019050610581565b60008484015250505050565b6000601f19601f8301169050919050565b60006105c482610562565b6105ce818561056d565b93506105de81856020860161057e565b6105e7816105a8565b840191505092915050565b60006060820190506106076000830186610553565b818103602083015261061981856105b9565b9050610628604083018461048a565b949350505050565b600080fd5b600080fd5b7f4e487b7100000000000000000000000000000000000000000000000000000000600052604160045260246000fd5b610672826105a8565b810181811067ffffffffffffffff821117156106915761069061063a565b5b80604052505050565b60006106a46104b4565b90506106b08282610669565b919050565b600067ffffffffffffffff8211156106d0576106cf61063a565b5b6106d9826105a8565b9050602081019050919050565b82818337600083830152505050565b6000610708610703846106b5565b61069a565b90508281526020810184848401111561072457610723610635565b5b61072f8482856106e6565b509392505050565b600082601f83011261074c5761074b610630565b5b813561075c8482602086016106f5565b91505092915050565b60006020828403121561077b5761077a6104be565b5b600082013567ffffffffffffffff811115610799576107986104c3565b5b6107a584828501610737565b91505092915050565b7f496e76616c696420696e64657800000000000000000000000000000000000000600082015250565b60006107e4600d8361056d565b91506107ef826107ae565b602082019050919050565b60006020820190508181036000830152610813816107d7565b9050919050565b7f4e487b7100000000000000000000000000000000000000000000000000000000600052603260045260246000fd5b7f4e487b7100000000000000000000000000000000000000000000000000000000600052602260045260246000fd5b6000600282049050600182168061089057607f821691505b6020821081036108a3576108a2610849565b5b50919050565b60008190508160005260206000209050919050565b60006020601f8301049050919050565b600082821b905092915050565b60006008830261090b7fffffffffffffffffffffffffffffffffffffffffffffffffffffffffffffffff826108ce565b61091586836108ce565b95508019841693508086168417925050509392505050565b6000819050919050565b600061095261094d61094884610480565b61092d565b610480565b9050919050565b6000819050919050565b61096c83610937565b61098061097882610959565b8484546108db565b825550505050565b600090565b610995610988565b6109a0818484610963565b505050565b5b818110156109c4576109b960008261098d565b6001810190506109a6565b5050565b601f821115610a09576109da816108a9565b6109e3846108be565b810160208510156109f2578190505b610a066109fe856108be565b8301826109a5565b50505b505050565b600082821c905092915050565b6000610a2c60001984600802610a0e565b1980831691505092915050565b6000610a458383610a1b565b9150826002028217905092915050565b610a5e82610562565b67ffffffffffffffff811115610a7757610a7661063a565b5b610a818254610878565b610a8c8282856109c8565b600060209050601f831160018114610abf5760008415610aad578287015190505b610ab78582610a39565b865550610b1f565b601f198416610acd866108a9565b60005b82811015610af557848901518255600182019150602085019450602081019050610ad0565b86831015610b125784890151610b0e601f891682610a1b565b8355505b6001600288020188555050505b505050505050565b60006040820190508181036000830152610b4181856105b9565b9050610b50602083018461048a565b939250505056fea26469706673582212206f57637f7da0f68a00b12c211d0cab7c652693fa40077413c807e50f5fe0071664736f6c63430008140033",
  "linkReferences": {},
  "deployedLinkReferences": {}
}